:1000000045C0000061C000005FC000005DC000008E
:100010005BC0000059C0000057C0000055C0000080
:1000200053C0000051C000004FC000004DC0000090
:100030004BC0000049C00000BAC2000045C000002B
:10004000CBC1000041C000003FC000003DC0000027
:100050003BC0000039C0000037C0000035C00000C0
:1000600033C0000031C000002FC000002DC00000D0
:100070002BC0000029C000005EC1000025C00000A8
:1000800023C0000021C000001FC0000011241FBEBB
:10009000CFEFD0E1DEBFCDBF11E0A0E0B1E0ECE1F9
:1000A000F2E100E00BBF02C007900D92AE35B10740
:1000B000D9F721E0AEE5B1E001C01D92A23AB20746
:1000C000E1F71AD30C940C099BCF86B1876086B9EF
:1000D00017B8379A369A089587B9369A3699FECF67
:1000E00084B195B10895662309F499C050938700AF
:1000F0004093860050938500409384005093830082
:10010000409382008F708330A1F128F4813059F040
:100110008230E1F07AC0853009F451C0E8F18630D0
:1001200009F460C072C0EBE8F0E082E0808383B144
:10013000877C83B988B3806E88BB85E08A95F1F7A8
:100140000000C7988081806280830895EBE8F0E02A
:1001500082E0808383B1877C83B988B3806E88BB5B
:1001600085E08A95F1F70000C698808180688083D9
:100170000895EBE8F0E082E0808383B1877C83B967
:1001800088B3806E88BB85E08A95F1F70000C79838
:100190008081806880830895EBE8F0E082E08083CE
:1001A00083B1877C83B988B3806E88BB85E08A95EC
:1001B000F1F70000C5988081886080830895EBE89E
:1001C000F0E082E0808383B1877C83B988B3806E5E
:1001D00088BB85E08A95F1F70000C5988081806230
:1001E00080830895EBE8F0E082E0808383B1877C30
:1001F00083B988B3806E88BB85E08A95F1F70000EB
:10020000C698808188608083089582E080938B0007
:1002100083B1877C83B988B3806E88BB089550937F
:10022000870040938600509385004093840050934C
:10023000830040938200E9CF89E582BF83E083BFDA
:1002400087B7816087BF089588E09DE397BD86BD2D
:1002500082E08FBD1DBC1CBC8DE18EBD87B7846064
:1002600087BF089582E080938B0088E793E09093A6
:100270008100809380001092870010928600109277
:1002800085001092840010928300109282001092D8
:1002900089001092880089E180938A00EDE7F0E000
:1002A000808180830895909398008093990082E0E4
:1002B00080939B0088E980939A0086E080939D005C
:1002C0000895EBE9F0E0908195FFFDCF80939C00CD
:1002D0000895CF93DF93EC018881882329F021963C
:1002E000F0DF89918111FCCFDF91CF910895FC015E
:1002F00080915E01811102C01082089520E030E0FB
:10030000D901A958BE4F8C9181932F5F3F4F203266
:100310003105B1F710925E0181E0089580919B0054
:10032000882344F4ACE9B0E0EBE9F0E08C91808103
:100330008823E4F308951F920F920FB60F921124B1
:100340000BB60F922F933F934F935F936F937F93CF
:100350008F939F93AF93BF93EF93FF9380915F0130
:10036000803230F0DBDF1092970110925E0121C0E5
:10037000E0915F01F0E080919C00E958FE4F80839E
:10038000E0915F01F0E0E958FE4F80818A3061F42E
:1003900081E080935E01E0915F01F0E0E958FE4F5B
:1003A000108210925F0105C080915F018F5F809382
:1003B0005F01FF91EF91BF91AF919F918F917F91DD
:1003C0006F915F914F913F912F910F900BBE0F90C6
:1003D0000FBE0F901F9018951F920F920FB60F929D
:1003E00011240BB60F92CF92DF92EF92FF922F93D0
:1003F0003F934F935F936F937F938F939F93AF93AD
:10040000BF93CF93EF93FF9389E582BF31B150B390
:1004100041B180B371B121B161B14095441F44270E
:10042000441F56955170452B91E036FB332730F928
:100430003927432350E0440F551F440F551F209583
:10044000221F2227221F76FB332730F9232B869584
:1004500081709827292330E0220F331FCA01822B95
:10046000932B262F660F330B2227330F221F3327A0
:10047000822B932B90916E01892B80936E0180913A
:10048000750190917601813F910550F480910001B2
:100490008D7F8093000110926701109266011DC04C
:1004A000883423E0920760F080910001826080939D
:1004B000000180EB94E090936701809366010DC08A
:1004C00020910001226020930001805F9048880FF6
:1004D000991F909367018093660140916601509146
:1004E000670160910001627080916E01FCDD809176
:1004F0006E01982F9474943051F420916F013091D3
:1005000070012F5F3F4F3093700120936F01C82F10
:10051000C295C07FC0936E0160916F0170917001B0
:1005200080E090E0B6D229E43EE24FEB5EE33FD3B9
:100530006B017C016093620170936301809364019D
:10054000909365017AD26093610170E080E090E061
:10055000A2D29B01AC01C701B6010AD220E030E073
:1005600048EC52E424D369D2609360018091000189
:1005700088232CF49C2F990F8170892B8BBBFF91C2
:10058000EF91CF91BF91AF919F918F917F916F919B
:100590005F914F913F912F91FF90EF90DF90CF901F
:1005A0000F900BBE0F900FBE0F901F9018951F92CB
:1005B0000F920FB60F9211240BB60F922F933F9309
:1005C0004F935F936F937F938F939F93AF93BF935B
:1005D000CF93DF93EF93FF938091000188230CF476
:1005E000909A81E091E075DE8091000184608093B3
:1005F0000001809161011F928F9386E091E09F93AB
:100600008F93C8E9D1E0DF93CF933DD3CE0161DE74
:10061000809160011F928F938DE091E09F938F9363
:10062000DF93CF9330D3CE0154DE80916F01909150
:10063000700190936901809368011092700110928B
:100640006F01809100012DB73EB7245F3F4F0FB679
:10065000F8943EBF0FBE2DBF81FF34C0809173015F
:10066000909174018F39924018F010926B010FC075
:1006700080916B018F5F80936B01853040F084E146
:1006800091E027DE809100018D7F809300018091B1
:10069000710190917201833C934018F410926A01A9
:1006A00005C080916A018F5F80936A0180916B0120
:1006B000833040F084E191E00CDE809100018D7F79
:1006C000809300018091000188230CF49098FF91A1
:1006D000EF91DF91CF91BF91AF919F918F917F91DA
:1006E0006F915F914F913F912F910F900BBE0F90A3
:1006F0000FBE0F901F901895CF93DF93CDB7DEB745
:10070000A0970FB6F894DEBF0FBECDBF8FEF8ABBA8
:100710001BBA80EE87BB18BA14BA87E085BB89E0A4
:1007200081BB82EF82BB88E382B980EC83B91092EF
:100730006100109262001092640010926500909A1D
:100740002FEF83ED90E3215080409040E1F700C00F
:100750000000BBDC71DD78DD85DD80E190E0A3DDAC
:10076000789489E191E0B5DD8EE191E0B2DD8AE235
:1007700091E0AFDD83E291E0ACDD89E291E0A9DDBB
:1007800090986894442444F86894552453F80F2EA4
:10079000FEE06F2EF1E07F2EF02D08E911E00F2E24
:1007A000F5E48F2EF1E09F2EF02D0F2EFBE4AF2EFF
:1007B000F1E0BF2EF02D0F2EF1E5CF2EF1E0DF2E70
:1007C000F02D0F2EF7E5EF2EF1E0FF2EF02D80E05B
:1007D00083DC90936D0180936C0181E07DDC9093CC
:1007E00072018093710182E077DC909374018093B1
:1007F000730187E071DC9093760180937501CE01DF
:10080000019675DD882309F456C06FE271E0CE01D0
:10081000019630D2892BE9F49091000181E089277B
:100820008093000180FF02C0D89A01C0D8988091BF
:10083000000181701F928F937F926F921F930F938D
:1008400022D2C80146DD0F900F900F900F900F90AD
:100850000F9063E371E0CE0101960CD2892B31F445
:10086000809100018F7E85258093000166E371E011
:10087000CE010196FFD1892B31F480910001877F51
:1008800084258093000169E371E0CE010196F2D1E5
:10089000892B29F4809100018068809300016FE327
:1008A00071E0CE010196E6D1892B29F480910001F7
:1008B0008F77809300018091000182FF3EC080917C
:1008C00076018F93809175018F939F928F921F93E2
:1008D0000F93D9D1C801FDDC809174018F93809171
:1008E00073018F93BF92AF921F930F93CCD1C80126
:1008F000F0DC80916D018F9380916C018F93DF927A
:10090000CF921F930F93BFD1C801E3DC8091720196
:100910008F93809171018F93FF92EF921F930F93AA
:10092000B2D1C801D6DC809100018B7F8093000199
:100930000FB6F894DEBF0FBECDBF8CB59DB5853820
:100940009E4190F08091000183FF04C08BB38E60C4
:100950008BBB3DCF84FF04C08BB3806E8BBB37CF86
:100960008BB381708BBB33CF8BB381708BBB2FCF9D
:100970005058BB27AA270ED0E0C0D1D030F0D6D037
:1009800020F031F49F3F11F41EF4C6C00EF4E09540
:10099000E7FBBCC0E92FE2D080F3BA176207730708
:1009A0008407950718F071F49EF5FAC00EF4E095EF
:1009B0000B2EBA2FA02D0B01B90190010C01CA0119
:1009C000A0011124FF27591B99F0593F50F4503EC4
:1009D00068F11A16F040A22F232F342F4427585FB6
:1009E000F3CF469537952795A795F0405395C9F7CE
:1009F0007EF41F16BA0B620B730B840BBAF0915086
:100A0000A1F0FF0FBB1F661F771F881FC2F70EC024
:100A1000BA0F621F731F841F48F4879577956795F7
:100A2000B795F7959E3F08F0B3CF9395880F08F0E0
:100A30009927EE0F97958795089598D088F09F573E
:100A400090F0B92F9927B751A0F0D1F0660F771F1A
:100A5000881F991F1AF0BA95C9F712C0B13081F0FA
:100A60009FD0B1E008959CC0672F782F8827B85F8A
:100A700039F0B93FCCF3869577956795B395D9F75B
:100A80003EF490958095709561957F4F8F4F9F4F65
:100A90000895E89409C097FB3EF490958095709571
:100AA00061957F4F8F4F9F4F9923A9F0F92F96E9BA
:100AB000BB279395F695879577956795B795F1112F
:100AC000F8CFFAF4BB0F11F460FF1BC06F5F7F4FCC
:100AD0008F4F9F4F16C0882311F096E911C07723DE
:100AE00021F09EE8872F762F05C0662371F096E8E7
:100AF000862F70E060E02AF09A95660F771F881FB6
:100B0000DAF7880F9695879597F9089597F99F6773
:100B100080E870E060E008959FEF80EC0895002485
:100B20000A941616170618060906089500240A9452
:100B300012161306140605060895092E0394000CD8
:100B400011F4882352F0BB0F40F4BF2B11F460FF67
:100B500004C06F5F7F4F8F4F9F4F089557FD905890
:100B6000440F551F59F05F3F71F04795880F97FB71
:100B7000991F61F09F3F79F087950895121613062B
:100B80001406551FF2CF4695F1DF08C0161617065A
:100B90001806991FF1CF869571056105089408958F
:100BA000E894BB2766277727CB0197F908950BD0E8
:100BB000C4CFB5DF28F0BADF18F0952309F0A6CF2F
:100BC000ABCF1124EECFCADFA0F3959FD1F3950FE1
:100BD00050E0551F629FF001729FBB27F00DB11DC1
:100BE000639FAA27F00DB11DAA1F649F6627B00D51
:100BF000A11D661F829F2227B00DA11D621F739F3A
:100C0000B00DA11D621F839FA00D611D221F749F47
:100C10003327A00D611D231F849F600D211D822F8E
:100C2000762F6A2F11249F5750408AF0E1F08823D5
:100C30004AF0EE0FFF1FBB1F661F771F881F9150E2
:100C40005040A9F79E3F510570F060CFAACF5F3F9B
:100C5000ECF3983EDCF3869577956795B795F79515
:100C6000E7959F5FC1F7FE2B880F911D969587959D
:100C700097F90895FB01DC018D9101908019011015
:100C8000D9F3990B08950F931F93CF93DF93CDB7AB
:100C9000DEB72E970FB6F894DEBF0FBECDBF0D891D
:100CA0001E8986E08C831A8309838FEF9FE79E83DA
:100CB0008D83AE01475E5F4F6F89788DCE010196BF
:100CC00011D02F813885F801E20FF31F10822E9684
:100CD0000FB6F894DEBF0FBECDBFDF91CF911F914D
:100CE0000F9108952F923F924F925F926F927F9251
:100CF0008F929F92AF92BF92CF92DF92EF92FF922C
:100D00000F931F93CF93DF93CDB7DEB72C970FB61A
:100D1000F894DEBF0FBECDBF7C016B018A01FC01E0
:100D200017821682838181FFB0C1CE0101964C01EA
:100D3000F7019381F60193FD859193FF81916F01F6
:100D4000882309F49EC1853239F493FD859193FF80
:100D500081916F01853221F4B70190E0C7D1E8CFCE
:100D6000512C312C20E02032A0F48B3269F030F489
:100D7000803259F0833269F420612CC08D3239F011
:100D8000803339F4216026C02260246023C02860AB
:100D900021C027FD27C030ED380F3A3078F426FF08
:100DA00006C0FAE05F9E300D1124532E13C08AE076
:100DB000389E300D1124332E20620CC08E3221F467
:100DC00026FD5FC1206406C08C3611F4206802C085
:100DD000883641F4F60193FD859193FF81916F016F
:100DE0008111C1CF982F9F7D9554933028F40C5FCB
:100DF0001F4FFFE3F9830DC0833631F0833771F065
:100E0000833509F057C021C0F801808189830E5FC6
:100E10001F4F44244394512C540114C03801F2E074
:100E20006F0E711CF801A080B18026FF03C0652DF4
:100E300070E002C06FEF7FEFC5012C874CD12C0111
:100E400083012C852F77222E16C03801F2E06F0E19
:100E5000711CF801A080B18026FF03C0652D70E0F1
:100E600002C06FEF7FEFC5012C872AD12C012C85A2
:100E70002068222E830123FC19C0832D90E04816A0
:100E80005906A0F4B70180E290E030D13A94F5CF52
:100E9000F50127FC859127FE81915F01B70190E064
:100EA00025D131103A94F1E04F1A51084114510400
:100EB00079F7DEC0843611F0893631F5F80127FF65
:100EC00007C060817181828193810C5F1F4F08C0D0
:100ED00060817181072E000C880B990B0E5F1F4FEC
:100EE0002F76722E97FF09C0909580957095619529
:100EF0007F4F8F4F9F4F2068722E2AE030E0A40171
:100F00002DD1A82EA81843C0853729F42F7EB22EE4
:100F10002AE030E025C0F22FF97FBF2E8F36C1F0D6
:100F200018F4883579F0ADC0803719F0883721F092
:100F3000A8C02F2F2061B22EB4FE0DC08B2D84606F
:100F4000B82E09C024FF0AC09F2F9660B92E06C094
:100F500028E030E005C020E130E002C020E132E0CE
:100F6000F801B7FE07C060817181828193810C5FB7
:100F70001F4F06C06081718180E090E00E5F1F4FBF
:100F8000A401ECD0A82EA818FB2DFF777F2E76FEAB
:100F90000BC0372D3E7FA51450F474FE0AC072FCBE
:100FA00008C0372D3E7E05C0BA2C372D03C0BA2CA1
:100FB00001C0B52C34FF0DC0FE01EA0DF11D80818A
:100FC000803311F4397E09C032FF06C0B394B39464
:100FD00004C0832F867809F0B39433FD12C030FF2C
:100FE00006C05A2CB31418F4530C5B18B32CB3146A
:100FF00060F4B70180E290E03C8778D0B3943C8500
:10100000F6CFB31410F43B1801C0312C34FF11C0DB
:10101000B70180E390E03C8769D03C8532FF16C081
:1010200031FD03C088E790E002C088E590E0B70199
:101030000CC0832F867851F031FF02C08BE201C0D3
:1010400080E237FD8DE2B70190E050D0A51430F476
:10105000B70180E390E04AD05A94F8CFAA94F40103
:10106000EA0DF11D8081B70190E040D0A110F6CFCC
:10107000332009F45DCEB70180E290E037D03A9496
:10108000F7CFF7018681978102C08FEF9FEF2C96F3
:101090000FB6F894DEBF0FBECDBFDF91CF911F9189
:1010A0000F91FF90EF90DF90CF90BF90AF909F9007
:1010B0008F907F906F905F904F903F902F9008950A
:1010C000FC010590615070400110D8F78095909513
:1010D0008E0F9F1F0895FC01615070400190011018
:1010E000D8F7809590958E0F9F1F08950F931F93AB
:1010F000CF93DF93FB01238121FD03C08FEF9FEF8F
:1011000028C022FF16C046815781248135814217AD
:10111000530744F4A081B1819D012F5F3F4F31837C
:1011200020838C93268137812F5F3F4F378326831F
:1011300010C0EB01092F182F0084F185E02D0995CF
:10114000892BE1F68E819F8101969F838E83812F6B
:10115000902FDF91CF911F910F910895FA01AA2747
:10116000283051F1203181F1E8946F936E7F6E5FEA
:101170007F4F8F4F9F4FAF4FB1E03ED0B4E03CD098
:10118000670F781F891F9A1FA11D680F791F8A1F7B
:10119000911DA11D6A0F711D811D911DA11D20D0E2
:1011A00009F468943F912AE0269F11243019305D9C
:1011B0003193DEF6CF010895462F4770405D41938D
:1011C000B3E00FD0C9F7F6CF462F4F70405D4A33DA
:1011D00018F0495D31FD4052419302D0A9F7EACFA2
:1011E000B4E0A6959795879577956795BA95C9F7D1
:1011F00000976105710508959B01AC010A2E0694C4
:101200005795479537952795BA95C9F7620F731F7C
:0C121000841F951FA01D0895F894FFCFC7
:10121C00024C20310A0053572025640A0053462003
:10122C0025640A004120310A004220300A00542073
:10123C00300A00535720300A00534620300A00462B
:10124C00415200534C005352004442475F3100441A
:10125C0042475F3000502025640A00422025640A72
:0E126C0000542025640A00432025640A000077
:00000001FF
