S0210000746573745F4672656552544F535F626C696E6B2D612D4C45442E737265631B
S113000045C0000060C000005EC000005CC000008D
S11300105AC0000058C0000056C0000054C0000080
S113002052C0000050C000004EC000004CC0000090
S1130030EEC2000048C0000046C0000044C00000FA
S113004042C0000040C000003EC000003CC00000B0
S11300503AC0000038C0000036C0000034C00000C0
S113006032C0000030C000002EC000002CC00000D0
S11300702AC0000028C0000026C0000024C00000E0
S113008022C0000020C000001EC0000011241FBEBA
S1130090CFEFD0E1DEBFCDBF11E0A0E0B1E0E6E7F5
S11300A0FDE000E00BBF02C007900D92AE32B10735
S11300B0D9F727E0AEE2B1E001C01D92A437B20740
S11300C0E1F74AD056C69CCFCF93DF9300D0CDB78B
S11300D0DEB73CD49A83898310E167E771E0CE01EF
S11300E001966ED58BB381278BBBF7CFCF93DF936C
S11300F000D0CDB7DEB72AD49A83898318E064EFA1
S113010071E0CE0101965CD58BB381278BBBF7CF11
S1130110CF93DF9300D0CDB7DEB718D49A83898309
S113012014E06EEE72E0CE0101964AD58BB38127BE
S11301308BBBF7CFCF93DF9300D0CDB7DEB706D418
S11301409A83898312E06CED75E0CE01019638D56F
S11301508BB381278BBBF7CFEF92FF920F938FEF77
S11301608ABB1BBA80EE87BB18BA14BA87E085BB7A
S113017089E081BB82EF82BB88E382B980EC83B9DA
S11301801092610010926200109264001092650057
S1130190E12CF12C01E020E030E045E550E060E0A6
S11301A071E08AE990E0A8D220E030E045E550E033
S11301B06AE071E088E890E09FD220E030E045E515
S11301C050E064E171E086E790E096D220E030E010
S11301D045E550E06EE171E084E690E08DD288D38D
S11301E080E090E00F91FF90EF900895CF93DF931C
S11301F0EC01A6D380912E0190912F01892B31F42B
S113020083E391E090932F0180932E01209130019C
S113021030913101CE01820F931F8B3D45E094074D
S113022070F42817390770F4C0912E01D0912F0172
S1130230C20FD31F909331018093300105C0C0E0F9
S1130240D0E002C0C0E0D0E042D4CE01DF91CF9133
S113025008950895FC010396928381832FEF3FEF65
S113026034832383968385839087878310820895BC
S1130270FC01118610860895CF93DF939C01FB0146
S1130280DC011196CD91DC911297D383C2838C81CA
S11302909D81958384838C819D81DC0113967C935D
S11302A06E9312977D836C8331872087F901808157
S11302B08F5F8083DF91CF910895CF93DF93EB011C
S11302C0488159814F3F2FEF520721F4FC01A78148
S11302D0B0850DC0DC01139601C0DF011296ED91CB
S11302E0FC9113972081318142175307B0F712967E
S11302F0ED91FC911397FB83EA83D583C483BD837B
S1130300AC831396DC93CE93129799878887FC016C
S113031020812F5F2083DF91CF910895CF93DF93C6
S1130320FC01A085B185C281D381848195819D839F
S11303308C83C481D581828193819B838A83119626
S1130340CD91DC911297CE17DF0731F48C819D811A
S113035012969C938E931197118610868C918150DE
S11303608C93DF91CF91089531E1FC013083319773
S113037022E220833197A3E3A083319760833197EE
S1130380708331971082319760E8608331971082CF
S1130390319762E06083319763E06083319764E072
S11303A06083319765E06083319766E060833197BD
S11303B067E06083319768E06083319769E0608328
S11303C0319760E1608331973083319732E1308334
S11303D0319733E13083319734E13083319735E11C
S11303E03083319736E13083319737E13083319769
S11303F038E13083319739E13083319730E230830B
S1130400319731E2308331972083319723E220837F
S11304103197408331975083319726E22083319777
S113042027E22083319728E22083319729E2208331
S1130430319720E32083319721E320838697089521
S11304401BBC82E58ABD8BE08EBD87B7806187BF08
S1130450A0917207B0917307CD91CDBFDD91DEBF3E
S1130460FF91EF91DF91CF91BF91AF919F918F91C8
S11304707F916F915F914F913F912F911F910F91B8
S1130480FF90EF90DF90CF90BF90AF909F908F90B0
S11304907F906F905F904F903F902F901F900F90A0
S11304A00FBE0F90089581E008950F920FB6F8944F
S11304B00F921F9211242F923F924F925F926F924C
S11304C07F928F929F92AF92BF92CF92DF92EF92E0
S11304D0FF920F931F932F933F934F935F936F93C9
S11304E07F938F939F93AF93BF93CF93DF93EF93B8
S11304F0FF93A0917207B09173070DB60D920EB6DB
S11305000D92D1D3A0917207B0917307CD91CDBF55
S1130510DD91DEBFFF91EF91DF91CF91BF91AF915C
S11305209F918F917F916F915F914F913F912F9107
S11305301F910F91FF90EF90DF90CF90BF90AF90FD
S11305409F908F907F906F905F904F903F902F90EF
S11305501F900F900FBE0F9008950F920FB6F8944E
S11305600F921F9211242F923F924F925F926F929B
S11305707F928F929F92AF92BF92CF92DF92EF922F
S1130580FF920F931F932F933F934F935F936F9318
S11305907F938F939F93AF93BF93CF93DF93EF9307
S11305A0FF93A0917207B09173070DB60D920EB62A
S11305B00D92D6D1811177D3A0917207B0917307B0
S11305C0CD91CDBFDD91DEBFFF91EF91DF91CF9152
S11305D0BF91AF919F918F917F916F915F914F9157
S11305E03F912F911F910F91FF90EF90DF90CF904B
S11305F0BF90AF909F908F907F906F905F904F903F
S11306003F902F901F900F900FBE0F900895A5DF7D
S11306101895E0913A07F0913B078081811107C05A
S11306208FEF9FEF90931207809311070895E09145
S11306303A07F0913B070580F681E02D0680F781AB
S1130640E02D82819381909312078093110708957E
S1130650FF920F931F93CF93DF93EC01F62E00913B
S1130660190710911A0780917207909173070296E7
S113067055DECF3F8FEFD80761F4FF2051F0609132
S11306807207709173076E5F7F4F8CE197E0F4DD22
S11306902DC0C00FD11FE0917207F0917307D3836F
S11306A0C283C017D10760F4609172077091730719
S11306B080913807909139076E5F7F4FFEDD16C039
S11306C0609172077091730780913A0790913B078C
S11306D06E5F7F4FF2DD8091110790911207C8176A
S11306E0D90720F4D0931207C0931107DF91CF915B
S11306F01F910F91FF9008954F925F926F927F9296
S11307008F929F92AF92BF92CF92DF92EF92FF921D
S11307100F93CF93DF934C016B015A012901CA0156
S113072065DD3C01892B09F4D2C08EE290E05EDDE8
S1130730EC01892B71F0788E6F8A81E0A81AB108D8
S11307406A0C7B1CD6018C91898F8C91811104C019
S113075017C0C3017EDDBBC0AE01465E5F4FF6012C
S11307603196B0E1CB0ED11CCF012191DA012D934A
S1130770AD01DC018C91882319F0EC15FD05A1F77E
S113078018A6043008F003E00E8B6E01B2E0CB0E25
S1130790D11CC6016DDDCE010C966ADDD987C887F0
S11307A084E090E0801B91099D878C87DB8BCA8B4A
S11307B019A61AA61BA61CA61DA6A201B401C30154
S11307C0D3DD99838883E114F10419F0F701D1830F
S11307D0C0830FB6F8940F9280911B078F5F8093AC
S11307E01B078091720790917307892B89F5D09329
S11307F07307C093720780911B07813009F038C0DA
S11308008EE497E027DD87E597E024DD80E697E036
S113081021DD89E697E01EDD85E497E01BDD8CE3AE
S113082097E018DD8FE297E015DD86E297E012DDB0
S11308308CE197E00FDD85E497E090933B0780938C
S11308403A078CE397E0909339078093380710C0F8
S11308508091170781110CC0E0917207F091730722
S113086096898E89891720F0D0937307C0937207F5
S1130870809113078F5F809313078E8990911807D7
S1130880981710F48093180790E09C01220F331FEF
S1130890220F331F220F331F820F931FB601825B77
S11308A0984FEADC0F900FBE80911707882359F008
S11308B0E0917207F091730796898E89981728F44E
S11308C0F4DD81E005C081E003C081E001C08FEF69
S11308D0DF91CF910F91FF90EF90DF90CF90BF9079
S11308E0AF909F908F907F906F905F904F900895FE
S11308F0EF92FF920F930F2EFFE0EF2EF7E0FF2E03
S1130900F02D00E020E030E045E550E068E271E0E1
S11309108CE196E0F1DE813079F4F8948FEF9FEF6B
S1130920909312078093110781E080931707109228
S11309301A071092190784DD0F91FF90EF90089524
S113094080910E078F5F80930E0708950FB6F89479
S11309500F928091190790911A070F900FBE089576
S1130960CF92DF92EF92FF920F931F93CF93DF9377
S113097080910E07811195C0E0901907F0901A0735
S11309808FEFE81AF80AF0921A07E0921907E114B7
S1130990F104B1F480913A0790913B072091380714
S11309A03091390730933B0720933A0790933907E6
S11309B080933807809114078F5F8093140729DE92
S11309C08091110790911207E816F90610F4D12CC2
S11309D050C0D12CCC24C394E0913A07F0913B074A
S11309E09081911107C08FEF9FEF9093120780932E
S11309F011073FC0E0913A07F0913B070580F6816B
S1130A00E02DC681D7812A813B81E216F30628F4C2
S1130A1030931207209311072CC08E010E5F1F4FD5
S1130A20C8017CDC8C899D89892B19F0CE010C9638
S1130A3075DC2E8980911807821710F4209318070B
S1130A4030E0C901880F991F880F991F880F991FDB
S1130A50820F931FB801825B984F0EDCE0917207FE
S1130A60F09173079E898689981708F4B5CFDC2C1A
S1130A70B3CFE0917207F0917307868990E0FC018F
S1130A80EE0FFF1FEE0FFF1FEE0FFF1F8E0F9F1FB6
S1130A90FC01E25BF84F8081823048F0DD24D3947E
S1130AA006C0809116078F5F80931607D12C809122
S1130AB01507882311F0DD24D3948D2DDF91CF9178
S1130AC01F910F91FF90EF90DF90CF900895DF92E8
S1130AD0EF92FF920F931F93CF93DF930FB6F89487
S1130AE00F9280910E07815080930E0780910E071C
S1130AF0811159C080911B07811130C057C0D701A3
S1130B001596ED91FC911697C681D781CE010C966E
S1130B1005DC8E010E5F1F4FC80100DC2E89809119
S1130B201807821710F42093180730E0C901880FC2
S1130B30991F880F991F880F991F820F931FB8015F
S1130B40825B984F99DBE0917207F09173079E895D
S1130B508689981768F0D09215070AC0C0E0D0E0E3
S1130B600F2EFFE2EF2EF7E0FF2EF02DDD24D394BD
S1130B70F70180818111C3CFCD2B09F04ADDC091EB
S1130B801607CC2349F0D1E0EBDE8111D093150791
S1130B90C150D1F71092160780911507882329F0C8
S1130BA084DC81E003C080E001C080E00F900FBED0
S1130BB0DF91CF911F910F91FF90EF90DF900895F7
S1130BC00F931F93CF93DF938C01EB01B9DE8091D8
S1130BD0190790911A07F801408151819A012C0F4D
S1130BE03D1F8417950748F424173507E0F4318333
S1130BF020838217930770F407C02417350778F011
S1130C008217930760F00FC060E0A901481B590BDD
S1130C10CA011EDD5CDF81110AC047DC08C0F8018F
S1130C2031832083F1CFF80131832083F3CFDF9127
S1130C30CF911F910F91089506E217E00F2EFEE465
S1130C40EF2EF7E0FF2EF02D24C07ADED801CC91F0
S1130C503EDFCC23F1F00FB6F8940F92D80115962D
S1130C60ED91FC911697C681D781CE01029656DB91
S1130C7080911B07815080931B0780912507815029
S1130C80809325070F900FBE8F89988DE2DACE01ED
S1130C90E0DA809125078111D8CFF7018081823075
S1130CA0C0F303DCF6CF80910E07882321F081E0A6
S1130CB08093150708951092150720911807822F25
S1130CC090E0FC01EE0FFF1FEE0FFF1FEE0FFF1F62
S1130CD0E80FF91FE25BF84F3081311111C0215048
S1130CE0822F90E0FC01EE0FFF1FEE0FFF1FEE0FAF
S1130CF0FF1FE80FF91FE25BF84F3081332379F3CC
S1130D00AC01440F551F440F551F440F551F480F86
S1130D10591FDA01A25BB84F1196ED91FC9112971D
S1130D200280F381E02D1296FC93EE9311974F5AB3
S1130D30584FE417F50729F442815381FD0152838A
S1130D404183FC01EE0FFF1FEE0FFF1FEE0FFF1F8D
S1130D508E0F9F1FFC01E25BF84F0180F281E02DB2
S1130D608681978190937307809372072093180765
S1090D700895F894FFCF82
S1130D76626C696E6B5F50413100626C696E6B5FC9
S1130D8650413200626C696E6B5F50413300626C95
S1110D96696E6B5F5041340049444C450000C7
S9030000FC
